:0200000060A7F7
:020002000000FC
:10000400016D000000000000001F003B005A007852
:10001400009700B500D400F301110130014E016DC9
:06002400000000000000D6
:10002A003431CEDCCE03CE48CE91CF223445688718
:10003A001445CE0414318E5A584F142286A4CED8B1
:10004A00344568CF14458624A45B67A7CF2060F7A0
:10005A0035233534AC52CE94AC4B005208021ED232
:10006A0086A4AC8B50273545683715458624CF20A2
:10007A0015231534CB6F3411E8415027E84950173E
:0E008A0000086017000060071411CB6F67FFBD
:00000001FF
