:02000000604F4F
:020002000000FC
:10000400000007E10003001E07CB0003000807B24D
:10001400149014311442145368EF34201490146172
:100024001472148368BF14218E0A3422624F016D46
:10003400000000000000001F003B005A00780097F9
:1000440000B500D400F301110130014E016D000030
:0400540000000000A8
:1000580035A1CEDCCE03CE48CE91CF2235B5688708
:1000680015B5CE0415A18E5A584F159286A4CED830
:1000780035B568CF15B58624A45B67A7CF20CB6FAD
:10008800369336A4AC52CE94AC4B01C208021ED2B1
:1000980086A4AC8B502736B5683716B58624CF2092
:1000A800169316A4CB6F3411E8415027E84950172E
:0E00B80000086017000060071411CB6F67FF8F
:00000001FF
